:020000040800F2
:10000000B0620120C1C00008FD0E0308C9C9020882
:1000100065F70208655702084975030800000000EB
:1000200000000000000000000000000001C0000807
:100030002D690208000000005DC000080D4B030898
:10004000DBC00008DBC00008DBC00008DBC0000824
:10005000DBC00008DBC00008DBC00008DBC0000814
:10006000DBC00008DBC00008DBC00008DBC0000804
:10007000DBC00008DBC00008DBC00008DBC00008F4
:10008000DBC00008DBC00008DBC00008DBC00008E4
:10009000DBC00008DBC00008DBC00008616B0208A1
:1000A000DBC00008454C0308DBC00008DBC00008CB
:1000B000514C0308694C0308DBC00008DBC0000892
:1000C000DBC00008DBC00008DBC00008DBC00008A4
:1000D000DBC000089D5A0308DBC00008DBC0000835
:1000E000596B0208DBC00008DBC00008DBC0000859
:1000F000DBC00008DBC00008DBC00008DBC0000874
:10010000DBC00008DBC00008DBC00008DBC0000863
:10011000DBC00008DBC00008DBC00008DBC0000853
:1001200015690208DBC0000821690208DBC000086D
:10013000DBC00008DBC00008DBC00008DBC0000833
:10014000DBC00008DBC00008DBC00008CD170308D7
:10015000DBC00008DBC00008DBC00008DBC0000813
:10016000DBC00008DBC00008DBC00008DBC0000803
:10017000DBC00008DBC00008DBC000080000000096
:10018000DBC00008DBC00008DBC00008DBC00008E3
:10019000DBC00008DBC00008DBC00008DBC00008D3
:1001A000A9D80208DBC00008DBC00008DFF80CD0CB
:1001B00000F006F800480047A9190408B0620120C1
:1001C000064C074D06E0E06840F0010394E80700A4
:1001D00098471034AC42F6D3FFF7ECFF0402000856
:1001E0002402000802E008C8121F08C1002AFAD140
:1001F00070477047002001E001C1121F002AFBD1A7
:100200007047000024020008000000205007000092
:1002100032CB00089005000850070020F45B010075
:10022000F4010008023B023201180AA973030851C5
:1002300074030829041A65041AC11001141E655BB1
:10024000030895041AA1041AC9041AF1041A4504F2
:100250001A710417040309041201298B1640830440
:100260002A571D020102035D031A1A031EC53E032D
:10027000089D041ACF041AD3041AD7041AED041ADD
:10028000C1041E8C330508FF01091DBD42203C3C02
:100290007305B029CC8210037924F41AAA01813C99
:1002A000303E0D9C01281E74620A089C04180A1C2A
:1002B000630A0824640A08C4041ADC041E24650ABC
:1002C00008BC041E54660A085C042ACC081A672875
:1002D0001D680A08B4041E6C690A087C041E046ABE
:1002E0000A0874041AE404180AF46B0A088C6C0AED
:1002F0000894041A9C041AE4041B546D3C1904BCB1
:10030000EC6E0A981EA961030847047C2562031855
:100310001A33101A3D04C11A91101A85041A9D044B
:100320001A7904140902202008010104C0320904CA
:10033000100A02080650050705810212022C070563
:1003400001070914202240292019070B1C09072046
:100350001B0A06452143400112021A80021B082095
:1003600001322203120812622609111B65582E5809
:1003700058100C595301081C800D08FFFFFF13D8BB
:10038000634C20F06404198211191433FF05100B1B
:10039000E54101083D4201086DC11B08C104280C5C
:1003A000FC3E0D08D1230208AAAAAA241194D3D393
:1003B000D31B4040A971178C770D0851CD73080EDF
:1003C0001314052A201429342C80808062512910AE
:1003D0002904412CC0C0C00C6A0F041301D52A089F
:1003E000F51AA03C320C29FC2944A9687CF0F0F0F5
:1003F00040291C29988117354901085C062A2044A8
:10040000CB106E7C69B86980291829142944320AF6
:1004100029B8290C5924420F4B3C88440138180A4A
:10042000D51C02086C5E0D0880041A94041AA804F6
:100430001ABC041AD0041AE4041AF8041E0C5F0D46
:100440000820041A34041A48041A5C041A70041AA6
:1004500084041E810502083F041011A5040208C58A
:10046000110208CD010208C14D0108180F070D1334
:10047000191F262E3946576D87A7CFA319A42A0125
:10048000E621100B51260208F1C601089003152041
:10049000ADB2B514FCFCFCFCF4F4F40432043C7082
:1004A00070702014DFDFDF14F3F3F33CECECEC0CA2
:1004B0003CD0D0D020143C7FB10C1746D8FB201480
:1004C0002C628B149EB0BA1498D1EF14E5F4FC3C66
:1004D000C4E5F60C3C68B3DB201AD58C0E1D27C78B
:1004E0000108D08C5440404029240A1D0298692CF0
:1004F0002924292C091AA4692C2924292C091AB089
:10050000692C2924292C1E4327020855BC131004EA
:100510006A2090091260368C770D080A14FFFFFFDD
:100520002C8080800A1154C0C0C029146918190891
:100530006A0F0441320B292849342117F98C01082C
:10054000D8063320041E4D280208817C1ACC1029BD
:10055000BC14FDFEFF14E0E0E01AE3B414D6EEFB99
:1005600014A9DBF63C9CCAE31454F0F0F014377D78
:10057000A33C959595A4291814F2F2F214E8E8E842
:1005800014D8D8D87CBCBCBC2C29B469EC011000B0
:020000040800F2
:10C000002C4B19680868B0E8F04F80F30988BFF33B
:10C010006F8F4FF0000080F3118870470000000020
:10C0200008480068006880F308884FF0000080F33B
:10C03000148862B661B6BFF34F8FBFF36F8F00DF16
:10C0400000BF00BF08ED00E0DFF80C00016841F41C
:10C0500070010160704700BF88ED00E0EFF30980D8
:10C06000BFF36F8F134B1A681EF0100F08BF20ED3F
:10C07000108A20E9F04F106009B44FF0500080F3AF
:10C080001188BFF34F8FBFF36F8F45F0B7FE4FF0AE
:10C09000000080F3118809BC19680868B0E8F04F07
:10C0A0001EF0100F08BFB0EC108A80F30988BFF3B0
:10C0B0006F8F704718010020EFF305807047000074
:10C0C0000648804706480047FEE7FEE7FEE7FEE732
:10C0D000FEE7FEE7FEE7FEE7FEE7FEE7294C030882
:10C0E000AD0100082DE9F05F0546002092469B4611
:10C0F00088460646814640241BE02846414647467E
:10C10000224600F047FB53465A46C01A914110D3CD
:10C1100011461846224600F02EFB2D1A67EB010847
:10C120004F4622460120002100F025FB17EB0009B5
:10C130004E41201EA4F10104DFDC484631462A4668
:10C140004346BDE8F09F00000649074A086850438F
:10C1500043F2390210440860400870470149086002
:10C16000704700003C0700206D4EC64110B5441AD0
:10C170000346944209D28418114403E011F8013DAA
:10C1800004F8013D521EF9D210BD40EA0104A40793
:10C1900003D009E010C9121F10C3042AFAD203E029
:10C1A00011F8014B03F8014B521EF9D210BDD2B267
:10C1B00001E000F8012B491EFBD270470022F6E790
:10C1C00010B513460A4604461946FFF7F0FF20460D
:10C1D00010BD421E12F8013F002BFBD111F8013BAC
:10C1E00002F8013B002BF9D1704710B5044604E07A
:10C1F0000B7800F8013B03B1491C521EF8D22046CF
:10C2000010BD421C10F8011B0029FBD1801A704799
:10C2100010B5002200E0521C835C8C5CA34201D16B
:10C22000002BF8D1D8B2E1B2401A10BD30B50446A7
:10C230000020034600E05B1C934203D2E05CCD5C2F
:10C24000401BF8D030BD034611F8012B00F8012B3C
:10C25000002AF9D11846704730B50546002003463C
:10C2600000E05B1C934205D2EC5CC85C201A01D153
:10C27000002CF6D130BD70B506462BF017FD0468D2
:10C2800005460A220021304600F0A6FA2C6070BD57
:10C290002DE9FE4F804681EA0300C00F0C46009056
:10C2A00021F0004123F00045B8EB0200A94105D27E
:10C2B0004046214690461C460B46024623F000406D
:10C2C000104347D0270DC7F30A00C3F30A51029069
:10C2D000401A019040286BDAC3F3130040F4801B2E
:10C2E0000098924620B10023D2EB030A63EB0B0BBC
:10C2F00001985946C0F14002504600F03CFA06460B
:10C300000D4650465946019A00F054FA10EB0800C9
:10C310006141002487EA115284EAE7731A4340D04E
:10C32000009A62B3019A012A4FEA075215DC001BFA
:10C3300061EB02014FF0004202EA0752CDE90042F0
:10C34000001C41F5801132462B4600F0C3FA03B0C1
:10C35000BDE8F08F40462146F9E7001B61EB020182
:10C36000001C41F5801300185B412018A2F500174E
:10C3700047EB030140EAD570B6196D4111E06D0835
:10C380004FEA360645EAC0754FEA0752001B61EBDB
:10C390000201001C41F5801149084FEA30000019E4
:10C3A000514132462B4603B0BDE8F04F00F083BA4E
:10C3B0000098012240000023D0EB020263EBE073FF
:10C3C000009821464FEAE074B8EB000061EB0401ED
:10C3D000E9E783F000435BE781F0004158E72DE98E
:10C3E000FE4F81EA030404F0004421F00041009470
:10C3F0004FF0000B23F0004350EA01045ED052EAF4
:10C4000003045BD0C3F30A54C1F30A552C44A4F2CD
:10C41000F3340194A0FB0254C1F3130141F48011E1
:10C42000C3F3130343F4801301FB024400FB034EE8
:10C43000840A970A44EA815447EA8357A4FB0768B1
:10C4400002958D0A05FB07854FEA932C04FB0C54DB
:10C450002705029D4FEA065847EA1637B5EB08054F
:10C460006EEB070C870E920E47EA811742EA8312A1
:10C47000A7FB0201B6EB0B0164EB00042B0D43EAB2
:10C480000C335E1844EB1C50DA465146E7FB0201C0
:10C49000C5F313044FEA0B3343EA14534FEA043253
:10C4A000019C43EA0603A4F10C040294009CCDE92C
:10C4B00000B400F00FFA03B0BDE8F08F0020014691
:10C4C000F9E72DE9F04D81EA030404F0004B21F077
:10C4D000004514464FF0000A23F0004150EA0502DF
:10C4E00020D054EA01021DD0C5F30A570246C5F315
:10C4F0001303C1F31300C1F30A5640F4801543F44B
:10C500008013A7EB0608101BD64608F2FD3873EB24
:10C51000050002D308F1010801E092185B41B8F16F
:10C52000000F03DA00200146BDE8F08D00204FF433
:10C530008011064684460EE0171B73EB050705D3F2
:10C54000121B63EB050306434CEA010C49084FEA52
:10C55000300092185B4150EA0107EDD152EA030026
:10C5600012D082EA040083EA0501084305D0101BBB
:10C57000AB4106D20122002306E000224FF0004327
:10C5800002E06FF0010253101AEB06004CEB085169
:10C5900010EB0A0041EB0B01BDE8F04D00F08BB948
:10C5A0000EB5C10F80EAE0700844CA07002140F2CE
:10C5B00033438DE80E000A460B4600F08BF903B0BA
:10C5C00000BD0EB540F2334102910021CDE90011CA
:10C5D0000A460B4600F07EF903B000BD70B5C1F30A
:10C5E0000A5201F000450024C1F3130140F2FF3369
:10C5F00041F480119A4201DA002070BD40F23343C9
:10C600009A42A2F2334203DC524200F0C3F800E047
:10C6100090402C43F1D0404270BDC1F30A5210B596
:10C62000C1F3130140F2FF3341F480119A4201DA61
:10C63000002010BD40F233439A42A2F2334203DCA1
:10C64000524200F0A7F810BD904010BD00F000422B
:10C6500030F000400AD0C10D01F56071C0F3160042
:10C6600042EA0151C20840071143704700200146C9
:10C670007047000030B5041E71F1000404DB4FF078
:10C680000044404264EB0101141E73F1000405DB19
:10C690001C464FF00043524263EB04038B4208BF39
:10C6A000824230BD30B5041E71F1000404DB4FF04E
:10C6B0000044404264EB0101141E73F1000405DBE9
:10C6C0001C464FF00043524263EB0403994208BFFB
:10C6D000904230BD01F0004330B421F0004150EAF7
:10C6E000010206D00A0DA2F56072C1F31301002AFF
:10C6F00002DC30BC00207047440F44EAC104C10092
:10C70000E01830BC00EBC25000F09EB8A0E8004F2B
:10C71000F0C040F804DB01B5AFF30080BDE8024093
:10C7200001C10020704700F12C080C4658F8040D98
:10C73000AFF3008058F8040D8546200008BF0120A3
:10C7400038E9F00018E9004F704730B50B46014654
:10C7500000202022012409E021FA02F59D4205D3A0
:10C7600003FA02F5491B04FA02F52844151EA2F14A
:10C770000102F1DC30BD202A04DB203A00FA02F18C
:10C78000002070479140C2F1200320FA03F31943BF
:10C7900090407047202A04DB203A21FA02F0002161
:10C7A000704721FA02F3D040C2F1200291400843C1
:10C7B00019467047202A06DBCB17203A41FA02F0CF
:10C7C00043EAE07306E041FA02F3D040C2F12002EE
:10C7D00091400843194670472DE9F04791460F46AE
:10C7E00080460446002614F8015B2DB100F040F9A4
:10C7F0000068405DC007F6D12B2D02D02D2D18D03A
:10C80000641E4A463946204600F036F927B1396899
:10C81000A14201D1C7F8008071054FF002040BD589
:10C820004042002803DD2BF041FA0460A007BDE878
:10C83000F08746F48066E4E70028F8DA2BF036FA51
:10C8400004606FF00040F2E70029A8BF7047401C69
:10C85000490008BF20F00100704710B4B0FA80FC16
:10C8600000FA0CF050EA010404BF10BC704749B153
:10C87000CCF1200421FA04F411FA0CF118BF0121C3
:10C8800021430843A3EB0C01CB1D4FEA00614FEAA3
:10C89000102042BF002010BC704700EBC350104472
:10C8A0000029A4BF10BC7047401C490008BF20F0FD
:10C8B000010010BC704710B5141E73F1000408DAB3
:10C8C000401C41F1000192185B411A4301D120F054
:10C8D000010010BD2DE9F04D92469B4611B1B1FA11
:10C8E00081F202E0B0FA80F220329046FFF743FF77
:10C8F00004460F4640EA0A0041EA0B0153465A46F5
:10C90000084313D0114653EA010019D0C8F1400280
:10C910005046FFF73FFF05460E46504659464246F1
:10C92000FFF729FF084305D0012004E020463946DF
:10C93000BDE8F08D0020054346EAE0762C433743FE
:10C940000A986305E40AA0EB08000022FD0A44EA05
:10C9500047540A3002D500200146E9E701051019C5
:10C960006941DDE9084500196941BDE8F04DA2E7DC
:10C9700070B521F0004303430CD0C1F30A550024E5
:10C98000D5EB040564EB0403D617AD1AB34102DB03
:10C990000020014670BD201841EB025170BD2DE909
:10C9A000F04D00231A461B1A8A4103DB0020014682
:10C9B000BDE8F08DC1F30A52C1F3130141F48015B3
:10C9C0004FF0000BD10702D100186D41521E002715
:10C9D000044640F2FF11384601EB620A3E468046AB
:10C9E000024600204FF48011FFF7D4FEC2197141B6
:10C9F000BB1846EB0100B4EB030C75EB000C04D341
:10CA0000E41A65EB000517460E46241908F10100EB
:10CA10006D4180463428E3DDF91946EB0600091B19
:10CA2000A84103D24FF0FF32134601E00022134623
:10CA30001BEB070046EB0A51BDE8F04DFFF73BBF8B
:10CA4000C1F30A52C1F3130140F2FF3341F48011E4
:10CA50009A4202DA00200146704740F233439A427C
:10CA6000A2F2334202DC5242FFF794BEFFF783BECC
:10CA700000487047E4310D082DE9F05F82460078E8
:10CA8000002715468B460AF10104B946302801D02B
:10CA90009DB113E014F8010B0127782803D0582822
:10CAA00001D045B10AE00DB1102D07D100271025A6
:10CAB00014F8010B02E0082500E00A250026B04624
:10CAC0000EE005FB080005FB06F1012701EB10460F
:10CAD0001FFA80F8B6F5803F00D3B94614F8010B71
:10CAE000294600F018F80028EBDABBF1000F05D05A
:10CAF0000FB1641E00E05446CBF80040B9F1000FBE
:10CB000006D02BF0D3F802210160C81EBDE8F09FCB
:10CB100048EA0640FAE73A2800D2303820F02002EE
:10CB2000412A01D3A2F13700884201D34FF0FF30F0
:10CB3000704770B58C1810F8015B15F0070301D130
:10CB400010F8013B2A1106D110F8012B03E010F870
:10CB5000016B01F8016B5B1EF9D12B0705D4002393
:10CB6000521E0DD401F8013BFAE710F8013BCB1A35
:10CB7000921C03E013F8015B01F8015B521EF9D52A
:10CB8000A142D8D3002070BD37B5446805460146A0
:10CB900020460CF0B9FB00285CD02B680F2B16D078
:10CBA00004DC0B2B22D00E2B32D050E0282B47D0A8
:10CBB000B3F5107F05D0112B49D1274B1B6813B952
:10CBC00048E0264B1B6829462046984742E020460D
:10CBD00002F0A0FE02AB43F8040D426E1568184641
:10CBE00002F0FCFEB5B32046A84733E0204602F031
:10CBF00091FE02AC0190683002F0EEFD54F8040D95
:10CC000003216C3002F0F5FD204602F0E7FE1EE045
:10CC1000EA680CCA0D2A02D0202A06D010E0002BA8
:10CC20000EDD204615F069FA05E0002B03DD2046F5
:10CC300015F063FA0EE00221204615F076FA09E0BD
:10CC4000EB6823B94FF4807120460CF03DFB284679
:10CC50000DF02AF803B030BDDC6500206803002029
:10CC600010B586B0002404940B9C03940A9C029493
:10CC7000099C0194089C009400F026F806B010BDB1
:10CC8000F0B5B0F90C50B0F91070B0F90E60044670
:10CC900087B01D44A369B0F90A000493B4F90830C1
:10CCA0000393638A029300238DE80A0010443B46F5
:10CCB0003246294600F008F86168054600F0C8F9D8
:10CCC000284607B0F0BD00002DE9F04186B0984637
:10CCD00005460E46174604F011F9109C1A4B0293B4
:10CCE0000D9B01934C340C9B0093039443463A46AE
:10CCF000314628460CF014FF8046F8B102F00AFED7
:10CD0000124E0F9905901022351D0CF0E5FC06AF70
:10CD10000FCD57F804ED0EF134040FC40FCD0FC43E
:10CD200095E80F0084E80F00736BCEF86430384646
:10CD300002F054FE736B40465B68984706F004FAB5
:10CD4000404606B0BDE8F08189CB000868030020AA
:10CD50002DE9F0418B4B826853F822504368052B34
:10CD600088B004460ED006DC002B40F00781006836
:10CD70000DF038FE02E1062B00F08980122B00F046
:10CD8000AA80FBE0EE69002E51D0AB6803936B687C
:10CD900002932B680193009610300FC806F018FE1E
:10CDA000002655F8260005F020FEEB69A2692169EE
:10CDB0006069D21A1944304403F03CFDEB69A26962
:10CDC0002169E069D21A1944801B03F033FDEB6935
:10CDD000E26961692069D21A1944304403F00CFEFB
:10CDE000EB69E2696169A069D21A801B19440136B6
:10CDF00003F002FE022ED4D1A86805F0F6FDE96921
:10CE000020696669E36942185B1A013A31440230CD
:10CE100003F056FEE969A2696669E369501A5B1A74
:10CE2000023A3144013003F04BFEEE690FE055F851
:10CE3000260005F0DAFD04F110000FC89B1B921BC1
:10CE400031443044013603F08FFD022EEFD1616989
:10CE5000E3692F69A26920690197EF6800970B4485
:10CE6000921B30445B10023103F0AAFC04F1140160
:10CE70000EC92069AC69019419446C690094491089
:10CE8000023B921B0131304403F09AFC76E00068CB
:10CE900002F040FD049020680EF044FA049B30B18B
:10CEA000A26852B91A6F003218BF012206E05A6F09
:10CEB000002A0CBF0022022200E0002203EB8203C2
:10CEC00004A8DD6E02F08AFD00231A462168284678
:10CED00003F078F952E0006802F01CFD08AED0F8CB
:10CEE000688046F8100DB8F1000F44D0A368B0F97F
:10CEF0005C7023B1032B0CBF0223002300E001234D
:10CF000000EB8303406D1C6C05F08CFD204605F0A2
:10CF10006CFD06A803F094FEA98BBDF81C30BDF88B
:10CF200018205B1AADF81C30BDF81A300233ADF88A
:10CF30001A30BDF81E30023BADF81E30049B0A4487
:10CF4000ADF81820B3F95E10B3F9602006A805F01B
:10CF5000EEF8304602F042FD022005F0EDFD4046BD
:10CF600002F0D8FC08AC3A4644F80C0D06A903F0D0
:10CF70009CFA204600E0304602F030FD002008B068
:10CF8000BDE8F0811C880D0813B5044678B103F0A4
:10CF9000B5FF204602F0BEFC02AB448E43F8040D00
:10CFA0001846C4F3002402F019FD06F0CDF820461F
:10CFB00002B010BD73B50D461646044690B103F09D
:10CFC0009DFF204602F0A6FC022D01909CBF00EBC5
:10CFD0008500466301A802F001FD20460DF02BFA02
:10CFE00006F0B2F802B070BD014B1862704700BF86
:10CFF0006C03002037B50D46044680B103F07EFF78
:10D00000204602F087FC02AB456543F8040D184644
:10D0100002F0E4FC20460DF00EFA06F095F803B09D
:10D0200030BD37B50D46044680B103F067FF20469A
:10D0300002F070FC02AB056543F8040D184602F0DF
:10D04000CDFC20460DF0F7F906F07EF803B030BDB8
:10D0500073B50D46044628B303F050FF204602F096
:10D0600059FC866E00906846019602F0B7FC29468E
:10D0700001A807F049F900280CBF012500250ED0B2
:10D08000019B9E4208D0204602F044FC019B009088
:10D090008366684602F0A2FC20460DF0CCF906F04B
:10D0A00053F800E00125284602B070BD73B50D4667
:10D0B0001646044690B103F021FF204602F02AFCF8
:10D0C000022D01909CBF00EB8500066401A802F0D0
:10D0D00085FC20460DF0AFF906F036F802B070BDC1
:10D0E000F7B5214D2A68538CD46C176D1C44938C72
:10D0F000A4B221B23B4493845184ADF8001006469B
:10D1000003F078FD0746304606F062FF013C2B68CD
:10D110003C442044B3F92440ADF80240ADF804008B
:10D1200003F0D2FD013C2044ADF8060068460DF046
:10D1300079FF38B90A2E0BD0BDF804302A680133C4
:10D14000538405E0304601F059F80DF061FEF0E738
:10D150002B68D96C5A8C521A5A84196D9A8C521AAF
:10D160009A8403B0F0BD00BF3C0300202DE9F341D9
:10D170000D46044600283AD003F0C0FE112D20468B
:10D1800004D0132D05D100F0D4FB2EE000F0ACF953
:10D190002BE002F0BFFB02AE002746F8080D00F0BE
:10D1A00072FC8046304602F019FCA5F14103192BB0
:10D1B00098BF2035B84518DD3946204600F066FC9A
:10D1C000019080B10678A6F14103192B98BF203653
:10D1D00001A8F6B202F002FCAE4204D13946204664
:10D1E00000F0DAFB01E00137E4E705F0ADFF02B043
:10D1F000BDE8F08173B50D460446C8B1C1B103F076
:10D200007DFE204602F086FB02ABC66B43F8040DA0
:10D21000184602F0E3FB2846FEF7F3FF2946421CBE
:10D22000304602F000FC20460DF005F905F08CFFB9
:10D2300002B070BD73B544680546204602F06AFB33
:10D2400002ABD0F8886043F8080D184602F0C6FB20
:10D25000294620460CF058F8002800F0A5802B68DD
:10D26000112B5CD01DDC0E2B7DD00F2B6BD00B2B2C
:10D2700040F09780204602F04DFB0190C06B02F019
:10D280001FFC019B02ACD3F888000CF049FD54F858
:10D29000043DD3F8940002F07DFA204602F09EFB94
:10D2A0007FE0262B1BD0B3F5107F3FD0212B78D108
:10D2B000EB685A68002A74DD1B680D2B71D130466B
:10D2C00008F0F7FF002806DB304608F0F2FF0146C1
:10D2D000204600F061FB204600F06AF817E0E9689C
:10D2E0000A2904D00B2916D001295AD103E020467F
:10D2F0000DF039F955E0304608F0DBFF002850DB2F
:10D30000304608F0D6FF0146204600F045FB204697
:10D310000DF0C0FA45E0204600F04AF841E0002E4A
:10D320003FD1EB681B7A002B3BD02DE0EB682BB193
:10D330001B7A0BB1012102E0022100E0032120460B
:10D340000DF011F930E0204602F0E4FA02AB43F8A8
:10D35000040DD0F884201668184602F03FFB06B38F
:10D360002046B0471DE0EB685A68002A19DD1968AD
:10D37000A1F10902192A10D801230C489340184042
:10D3800078B92AB11B0208D5204600F0C7F908E099
:10D390000CF034FE864204D1B9E72046FFF7E6FEE2
:10D3A00002E028460CF080FC02B070BD02000403CD
:10D3B00013B50446B0B103F0A1FD204602F0AAFA6D
:10D3C0000190D0F8880040B10CF0AAFC019B00222B
:10D3D000C3F8882020460DF02EF801A802F0FEFACE
:10D3E00005F0B2FE02B010BDF0B5B0F90C50B0F9C6
:10D3F0001070B0F90E60044687B01D44A369B0F9FF
:10D400000A000493B4F908300393638A029300235B
:10D410008DE80A0010443B463246294600F002F8E7
:10D4200007B0F0BD2DE9F04786B004460D4616461C
:10D430009A4603F063FD129B6C330393284B0293CF
:10D440000F9B01930E9B009332464FF0FF3329460A
:10D4500020460CF065FB074600283BD002F05AFA44
:10D460000DF11808DFF87C901199059010220CF04E
:10D4700033F958F8046D109B86F88C304D460FCD6B
:10D4800006F14C040FC40FCD0FC40FCD0FC495E8A7
:10D490000300D9F8383084E80300C6F8843000234C
:10D4A00086F890303846A6F836A000F0C9FA404613
:10D4B00002F094FA02F001FB0446384602F02AFA20
:10D4C0000590C463404602F089FAD9F838303846EE
:10D4D0005B68984705F038FE384606B0BDE8F0872F
:10D4E00035D20008A003002010B5044600F00CFA65
:10D4F000014600B1411E2046BDE8104000F04CBA84
:10D500002DE9F041044688B0006802F003FA08AB48
:10D51000D0F8886043F8100D458E184602F05EFA88
:10D5200020680DF0FFFE36B9EA0706D4002814BFC4
:10D530000223032302E0002300E00123764A52F88D
:10D5400023506368022B00F0C48006DC002B40F0FF
:10D55000DF8020680DF046FADAE0052B35D0122B7B
:10D5600040F0D680206802F0D5F9034608A8B3F948
:10D57000808040F80C3DDF6CB3F9826002F02EFA37
:10D580002169A28B1FFA88F001440231ADF818100E
:10D59000A18A8B1CADF81A30A3690B44033B1B1AFC
:10D5A0009B1A0220023AADF81E20ADF81C3005F09F
:10D5B000C3FA384605F036FA286A05F016FA3246FC
:10D5C00006A9206A02F071FFA2E0AB6803936B68C2
:10D5D00002932B680193AB6A009304F110000FC80B
:10D5E00006F0F6F9002655F8260005F0FEF9AB6ABC
:10D5F000A26921696069D21A1944304403F01AF90A
:10D60000AB6AA2692169E069D21A1944801B03F050
:10D6100011F9AB6AE26961692069D21A1944304490
:10D6200003F0EAF9AB6AE2696169A069D21A801B6A
:10D630001944013603F0E0F9022ED4D1AB6A022B73
:10D6400018DDA86805F0D1F9A96A20696669E3695F
:10D6500042185B1A013A3144023003F031FAA96AE8
:10D66000A269E3696669501A5B1A023A31440130D3
:10D6700003F026FA6169E3692F69A86A2669A2693D
:10D680000197EF6800970B44121A5B103044023187
:10D6900003F096F804F114010EC9AF69AE6A20696F
:10D6A000019719446F6900974910921B023B0131A1
:10D6B000304403F085F8686A05F097F9E26961691A
:10D6C000A369501A181A043A0431013003F094F98E
:10D6D0001EE06269E369E8699B1AA3F10806761007
:10D6E000A269741E5F1C1B1BA2EB67075C1005F090
:10D6F0007CF907EB06080025BF1B60190135731B79
:10D70000002B05DBC5EB0802791903F093F8F4E769
:10D71000002008B0BDE8F0812C880D082DE9F04FFD
:10D7200004469BB0002800F0EC8003F0E7FB2046A5
:10D7300002F0F0F80D9020460CF062FD05900D9877
:10D74000C36BB0F9367090F88C60069390F890A097
:10D75000B0F934B000F097F90D9A8146B2F98230F1
:10D76000079392E80300D36C08930FAB83E80300A0
:10D77000116D1191516D1291916D1391D16D1491A3
:10D78000116E1591516E1691116FB2F88E80D2F80C
:10D79000945017910DA8516F926F0B931891199295
:10D7A00002F01CF920460CF0C2FC02F0B3F802466D
:10D7B0001AA8B2F9001040F8382DB2F902200A91E7
:10D7C000099202F00BF90B9B099A0A9918465242EA
:10D7D000494204F0ACFCB2074ABFBDF83E30BDF888
:10D7E0004230DB1B2046ADF83E300CF0A0FC02219D
:10D7F00002910599BDF93E3001970091BDF93C2099
:10D800000146002008F0C9FCF307074606D551463B
:10D8100008F0CAFF0121384608F0D8FE00264E4520
:10D8200009D03146069802F0B0F90146384608F0B2
:10D83000E0FA0136F3E7002611AB314653F8262013
:10D840003846013608F0F3FE032EF5D1002614AB5E
:10D85000314653F826203846013609F046F8032EA3
:10D86000F5D1002617AB314653F82620384601364D
:10D8700008F079FF032EF5D1DDB1284602F04AF811
:10D88000B0F800900E90064600254D450EDA06EBE6
:10D89000D50305F007029B7843FA02F2294602F00D
:10D8A0000102384608F0FBFE0135EEE70EA802F053
:10D8B00095F84146384608F024FF0899384608F0A4
:10D8C000D2FE0799384608F0F8FF38460CF0E2FF20
:10D8D0002146384608F02FFF5946384608F082FFA7
:10D8E000012120460CF03FFE204602F013F81AAB4F
:10D8F000C0F8887043F8340D184602F06FF805F050
:10D9000023FC1BB0BDE8F08F13B5044670B103F0E3
:10D91000F5FA204601F0FEFF02ABB0F9344043F8BF
:10D92000040D184602F05AF805F00EFC204602B02D
:10D9300010BD10B50446FFF7E7FF411C2046BDE8C7
:10D94000104000F029B873B50E4615460446D0B114
:10D95000012918D803F0D2FA204601F0DBFF034674
:10D9600003EB860102A840F8043D8B6EAB4206D063
:10D970008D6602F033F820460CF05DFD01E002F008
:10D980002DF805F0E1FB02B070BD0000014B1860FE
:10D99000704700BFA003002037B50D46044618B3FA
:10D9A00003F0ACFA204601F0B5FF019000F06BF8EF
:10D9B00000B1013885422946A8BF014602A850F8A7
:10D9C000043DB3F934208A420AD0998602F006F861
:10D9D00020460CF030FD042120460CF0C4FD01E08F
:10D9E00001F0FCFF05F0B0FB03B030BDF7B50C460D
:10D9F0001546064610B3022920D803F07FFA3046B8
:10DA000001F088FF034603EB840202A8D16D40F8C1
:10DA1000043DA9420ED0D3F88870D56501F0DEFF31
:10DA200030460CF008FD3FB12A462146384608F042
:10DA30005CFF01E001F0D2FF05F086FB03B0F0BD12
:10DA4000F7B5064601F066FFB0F9383001901BB912
:10DA5000C06C03F0AFF9034602AD55F8040DC26A7D
:10DA6000B0F98040126802EB44041C440DF0D2FA75
:10DA70000746284601F0B2FF2246394630460DF0EF
:10DA800005F803B0F0BDC06B02F070B837B50C46B6
:10DA900001F040FF02AD214645F8040DC06B02F0D5
:10DAA00074F80446284601F099FF20460CB101F0B5
:10DAB00031FF03B030BD2DE9FF470D460446002875
:10DAC00000F0E98003F01AFA204601F023FF04AECB
:10DAD000D0F858A046F80C0D90F85490D0F8348047
:10DAE000C76C304601F07AFFBAF1000F03D0294627
:10DAF0002046D047CAE0122D00F0C48005DC102D6E
:10DB00003CD009DC082D3BD057E01D2D43D01E2D05
:10DB10003DD0132D51D114E0B8F1000F00F0B680C4
:10DB2000404601F0F7FE04AE3946054646F8040DBE
:10DB300005F0F4F90544284605F09EF92B4601222C
:10DB400014E0B8F1000F00F0A180404601F0E2FEC1
:10DB500004AE3946054646F8040D05F0DFF90544E4
:10DB6000284605F089F92B464FF0FF320146204642
:10DB70000EF081FB304601F031FF87E0791E82E034
:10DB8000002F00F08380791E204600F00CFB204619
:10DB90000EF01AFF7AE0204601F0BCFEB9F1010F49
:10DBA000019002D180F854A0E4E7012380F85430BA
:10DBB0003946204600F0F7FADCE71F2D66DDB9F1A3
:10DBC000000F02D020460EF0FFFE204601F0A2FE1C
:10DBD000B0F938300290002B804616DD406B60B102
:10DBE00001F098FE0DF1100949F8040D06F0E2F974
:10DBF0000646484601F0F2FE00E00646B8F9380055
:10DC00008642ACBF0026012600E001260DF1100877
:10DC100058F8083D4046D3F84C9001F0DFFEAEB313
:10DC2000ADB2284605F048F982460146204613F079
:10DC30007CFF58B3204601F06DFE466B02904046D3
:10DC400001F0CCFE304601F065FE0DF110084946AA
:10DC5000064648F8040D05F061F906443046FEF723
:10DC6000D0FA3146421C06EB0A00FEF77FFA29463D
:10DC7000304605F0EFF8404601F0B0FE05212046A1
:10DC80000CF071FC791C204600F08DFA20460CF057
:10DC9000D2FB05F059FA04B0BDE8F08773B54468CB
:10DCA000054620460DF03EFB2946064620460BF071
:10DCB0002BFB00286BD02B680F2B3FD004DC0B2BE9
:10DCC00041D00E2B4CD05FE040F21312934203D0B0
:10DCD000B3F5107F21D057E020460CF01BFD204605
:10DCE00001F018FE02AE46F8040D90F8563083F0AD
:10DCF000040380F85630304601F070FE00212046C3
:10DD000014F086FB204601F005FE00210190D0F8BA
:10DD100084000CF0E2FC30461FE0EB684BB11A7A4D
:10DD20002AB11968204600F0FBF8012102E0022127
:10DD300000E0032120460CF016FC25E001212046DE
:10DD400014F066FB23E0204601F0E4FD02AC44F849
:10DD5000040D343001F040FD204601F03FFE13E099
:10DD600096B1EB685A68002A0EDD1968A1F1090224
:10DD7000192A05D8012303FA02F2064B13401BB9F6
:10DD80002046FFF798FE02E028460BF08DFF02B018
:10DD900070BD00BF13000403F0B5B0F90C50B0F92A
:10DDA0001070B0F90E60044687B01D44A369B0F945
:10DDB0000A00059363690493B4F908300393638AF6
:10DDC000029300238DE80A00104429463B46324660
:10DDD00000F008F8054610B1618A00F0B3F9284652
:10DDE00007B0F0BD2DE9F04387B09046994605464F
:10DDF0000F46129E03F082F8139C234B029360346B
:10DE000003940F9C0E9B009344F48054424601946B
:10DE10004B46394628460BF083FE804600282DD01D
:10DE200001F078FD194D1199059010220BF054FC6A
:10DE30000FCD059F07F160040FC40FCD0FC42B68F1
:10DE40002360012387F85530731C18BF0123002E6F
:10DE5000CCBF36B2082687F8883000237B877B63E7
:10DE60003E8705A801F0BAFD711C404613F064FB23
:10DE7000044618B940460BF053FFA04605F064F97C
:10DE8000404607B0BDE8F0839DDC0008DC030020BD
:10DE900073B5044616460D4651B348B303F02EF849
:10DEA000204601F037FD00232B700090406BD0B16D
:10DEB00001F030FD019006F07DF80146019805F073
:10DEC0002DF8B0420446A8BF06F1FF3402AE094B5C
:10DED00056F8041D1B68224628469847304601F034
:10DEE0007DFD00232B55684601F078FD05F02CF9E7
:10DEF00002B070BD5C03002013B5044668B102F0A7
:10DF0000FDFF204601F006FD02AB846C43F8040DD2
:10DF1000184601F063FD05F017F9204602B010BD68
:10DF20002DE9F3410F460546002853D002F0E6FFE5
:10DF3000284601F0EFFC0190406B002845D001F02D
:10DF4000E9FC019B0090986E04F06CFD06462846A3
:10DF50000CF056F90446009802F0F6FE019A136E92
:10DF600003F00303012B804607D0022B0AD1221AAB
:10DF7000013292FBF3F3FC1A0AE0231A546E0134C7
:10DF80001C1B04E0D36A546E1B6801341C443C1B08
:10DF9000009806F00FF8002C024601DA002108E094
:10DFA000A04501DA014604E02146009805F094FFFF
:10DFB0000146284600F0F7F8684601F00FFD3046AC
:10DFC00004F030FD28460CF036FA01A801F006FDF9
:10DFD00005F0BAF802B0BDE8F0810000014B98608E
:10DFE000704700BFDC030020F7B50D460446A8B318
:10DFF00002F084FF204601F08DFCB0F9383002AE0B
:10E00000AB4246F8080D24D0478F12DD406B80B13B
:10E0100001F080FC019005F0CDFF854206DA29462B
:10E02000019804F07BFF019B00221A5401A801F023
:10E03000D5FC304601F0D2FCE91B0131204613F03B
:10E040007BFA204601F066FC0090058720460CF024
:10E05000F2F9304601F0C2FC05F076F803B0F0BDED
:10E060002DE9F7430D460446002865D002F046FF2F
:10E07000204601F04FFC02AF466B47F8080DB0F99F
:10E080003880384601F0AAFC002D43D066B13046F6
:10E0900001F040FC0DF1080949F8040DFEF7B1F854
:10E0A000461C484601F09AFC284605F083FF80454F
:10E0B000A8BF80464146284604F030FF00F1010920
:10E0C000C6EB0901204613F030FD80B3204601F075
:10E0D00021FC0090406B01F01DFC194B01904A4659
:10E0E0001B6829469847019B9944002309F8013C85
:10E0F000009BB3F93820C3F84C80424506D193F811
:10E100005410012904BF02F1FF32DA6401A801F0C2
:10E1100065FC09E0204601F0FDFB0090343001F081
:10E120005BFB009B5D87DD64384601F057FC2046B1
:10E130000CF081F905F008F803B0BDE8F08300BFEA
:10E140005C03002037B50D46044678B102F0D6FED8
:10E15000204601F0DFFB019018B1056620460CF067
:10E160006AF901A801F03AFC04F0EEFF03B030BDFB
:10E1700073B50D461646044698B102F0BFFE204620
:10E1800001F0C8FB019038B1022D05D800EB8500E5
:10E19000C66620460CF04FF901A801F01FFC04F000
:10E1A000D3FF02B070BD13B50C4601F0B3FB009075
:10E1B000406BF0B101F0AEFB019005F0FBFE009B5F
:10E1C000B3F9382093F8541024EAE474002918BFF6
:10E1D000013A9442A8BF1446A042DA6CA8BF204678
:10E1E00082424FF0000218BFD8641A6501A801F0FE
:10E1F000F5FB684601F0F2FB02B010BD0A2810B52D
:10E20000044603D1BDE8104002F092B80D2810D0AA
:10E2100002F074FE074B1B68DB6920461B689847B9
:10E22000054B1B680BB120469847BDE8104004F031
:10E230008BBF10BD3C03002098BA00202DE9F041AF
:10E24000D0F80C8086B0044600200E46174604F035
:10E25000DDFB0546B8F1000F05D098F8043013B186
:10E2600040F0020001E025F0020004F0CFFB21693C
:10E2700069B101206388228803900290E0680190D0
:10E28000A06800900C6830463946A0471FE0DFF8D0
:10E290005080124BD8F800201B68527CE068214661
:10E2A0009847E18820B9012904BFD8F80030986B5D
:10E2B000638822880590A0680490A08802910121BB
:10E2C0000390019100913046394606F0B3FD28468F
:10E2D00006B0BDE8F04104F099BB00BF3003002058
:10E2E0003C03002030B585B004AC002544F8045D43
:10E2F000009400F0D9F805B030BD00002DE9F74FCB
:10E30000141A5D1A54EA050706468846DDF830906F
:10E3100004D103B0BDE8F04F00F09EB985EAE57086
:10E3200084EAE471A0EBE570A1EBE47188420ADDB8
:10E3300021462C460D4611461A460B46314601270A
:10E340004646884600E0002784EAE471A1EBE471C8
:10E35000A1421FBF98466D423346644217BF16461E
:10E3600001231A464FF0FF33002DD9F800B0DFF833
:10E3700034A138D1DAF80030C7B19B7E8BB9314671
:10E38000404603B0BDE8F04F06F0BEBE14F04CFEB0
:10E3900030B9DAF800305B6E71195B684046984717
:10E3A0000135A54205EB0B00F0DD18E0997E91B92F
:10E3B0005B6E1B684146304603B0BDE8F04F18471E
:10E3C00014F032FE30B9DAF800305B6E41465B681B
:10E3D000F01998470137A7420BEB0700F0DD013831
:10E3E000C9F800005AE0DAF80010897E4FF0020206
:10E3F00094FBF2F2B8BF5242B1B99146B346C6EBB4
:10E400000B039C424ADB99FBF4F0DAF800305B6EB8
:10E4100040445B6817B90146584600E059469847A2
:10E420000BF1010BA944EAE7591C04BF04EB0B01F3
:10E43000C9F800100092B346C6EB0B029442D9F81B
:10E44000000021DB1844C9F80000019314F0ECFD32
:10E45000019B98B9009A92FBF4F0404437B9DAF87E
:10E460000020526E01465268584605E0DAF8002056
:10E470000193526E526859469047019B009A2A4474
:10E480000BF1010B0092D7E75A1C04BF2418C9F8FE
:10E490000040D9F80020D31AC9F8003003B0BDE815
:10E4A000F08F00BF3C0300202DE9F04FDFF8A4916E
:10E4B000D9F80040247E012C87B0074688461546CF
:10E4C0001E4604D1109C0094FFF718FFBDE0821A8D
:10E4D000CB1A52EA030100F0B880002AB6BF01212E
:10E4E00000215242002BBCBF5B4241F002019A4224
:10E4F000BEBF10461A4603464FEA620000EB832374
:10E5000093FBF2F3524A4FEAA31EC3F38303C3F112
:10E51000100C02EB4E00B8BF41F00401BCF1100F2B
:10E5200018BF02EB4E02B0F9220018BFB2F9242046
:10E530000CFB00F018BF03FB02000830102390FB17
:10E54000F3F04B0748BFC0F58060CA0748BFC0F56D
:10E5500000608B0748BFC0F5805000F5806B5846BF
:10E5600005F0F6FF013C00FB04FA584605F0F4FF05
:10E57000BAF1000FB8BFCAF5007300FB04F0B5BFD5
:10E580009B120AF500735B429B120028BBBFC0F5CB
:10E590000070801200F500704042A8BF8012002B6E
:10E5A000CBBF591C0222491093FBF2F1CEBF5B1086
:10E5B00003F1FF3393FBF2F30028C8BF421C1FFA9C
:10E5C00087FE89B2D5BF0224521090FBF4F24010AE
:10E5D000DCBF00F1FF3090FBF4F00EEB0104ADF86E
:10E5E000084092B21FFA88F480B204EB020C241A9D
:10E5F0009BB2ADF80E40ACB2C3EB0E0EE31AADF811
:10E600001030B3B2181A1A4421440023ADF8120096
:10E61000ADF81410ADF8162004211A4602A8ADF882
:10E620000AC0ADF80CE000F0F3F8D9F800305B7EDA
:10E630001BB94146384600F00FF8D9F800305B7E30
:10E640001BB93146284600F007F807B0BDE8F08F47
:10E65000603E0D083C030020064B1B681A7E012A11
:10E6600002D15B6E5B681847013A022392FBF3F21A
:10E6700000F002B83C0300202DE9F04F40F2C32621
:10E6800085B02C4F56434FF47A7396FBF3F6022372
:10E6900092FBF3F302FB023301933B685B6E14467B
:10E6A00080461B6802440125001B8946984708EBF9
:10E6B0000503029308F1FF3301360393B54235DCBD
:10E6C00004FB04F3019A05FB05339A4218DAB442BD
:10E6D00015DD029BC5EB030A039B03EB050B3B68AF
:10E6E0005B6E5A461B6804EB0901504698473B682D
:10E6F0005B6E5A461B68C4EB090150469847013CC3
:10E700003B685B6EC4EB080A04EB080B09EB0501E0
:10E710001B685A46504698473B685B6EC5EB09013B
:10E720001B685A46504698470135C7E705B0BDE813
:10E73000F08F00BF3C0300202DE9F74F14460D4633
:10E7400006468118801A00F0C1FF304A022394FB6C
:10E75000F3F304FB043301932B1B009313685B69F1
:10E7600004EB050B90465BB1B3F90620B3F9023018
:10E770009345A8BF93462A1B9A42B8BF1A460092F7
:10E7800005F1FF3A27464FF001094C451ADD009B81
:10E790009A4512DBDA4510DC09FB09F2019907FB07
:10E7A0000723994201DA013FF8E7D8F800305B6EA1
:10E7B000F2191B685146F01B984709F101090AF14B
:10E7C000FF3AE2E727464FF000094C4519DD009B70
:10E7D000AB4212DCAB4510DB09FB09F2019907FBE8
:10E7E0000723994201DA013FF8E7D8F800305B6E61
:10E7F000F2191B682946F01B984709F101090135F8
:10E80000E3E703B0BDE8F04F00F094BC3C03002008
:10E810002DE9F74F6F4F009305460191904643F65F
:10E82000FF740023019A93420BDA05EB8302013354
:10E83000B2F902209442A8BF14469742B8BF1746C7
:10E84000F0E7654E33685B696BB1B3F90620009958
:10E85000B3F90230521A9742A3EB0103A8BF17463F
:10E860009C42B8BF1C46009B1C44009BC3EB0409A0
:10E870004F45C0F2AC80594A002313609A46019B71
:10E8800003F1FF3B019B9A455ADADA4505EB8A030F
:10E89000B4BF0AF1010C4FF0000CB3F902304FEA9B
:10E8A0008C0C05EB0C024B45B2F9021036D14945F0
:10E8B00002D0534600201AE035F92AE035F90C0061
:10E8C0003368C64440445B6E8645B8BF02461B6849
:10E8D000B9BF21467046724621461DE053B1013B47
:10E8E00005EB8302B2F902204A4505D10130834588
:10E8F000F4DC22E05B46F3E7C9EB0202C9EB01015D
:10E9000092EA010F35F92A0050D433685B6E00EBB0
:10E9100008021B682146104698470EE049450CD076
:10E9200002DB4B4545DD02E04B4506DB01E0494596
:10E9300003DC8B4243DC4B4520DD0AF1010AA1E7F1
:10E940004FF000094846CA46244B1B689A4513DA23
:10E95000234B33F91AB0B9F1000F07D033685B6E5F
:10E9600008EB0B021B6821464044984789F00109D7
:10E970000AF1010A5846E7E7013476E74945DCDB4E
:10E9800035F92AE035F90C20C3EB0900CEEB020281
:10E990004243002AA1EB0303DBBF581000F1FF3014
:10E9A00002EB6302121A92FBF3F070440CF020FFAA
:10E9B000C3E78B42E4DD4945BFDC4B45BDDB184670
:10E9C00035F90CE035F92A200B460146DCE703B0A7
:10E9D000BDE8F08F01C0FFFF3C0300202CB90020F0
:10E9E00030B9002008B50E4B186803F0F3FF0D4B4B
:10E9F000186803F0FAFF012004F080F8002004F00A
:10EA00008BF8002004F098F8002003F0FFFF064B7D
:10EA1000186804F007F80020BDE8084004F040B88A
:10EA2000D463002038030020340300204D4B2DE92F
:10EA3000F04F1A68D169CC69A38983428BB008D89A
:10EA4000E589854205D325680695C31A4FF0FF3640
:10EA500013E0A368002B7CD01D88A84279D35E8880
:10EA6000864276D35B6866680696401B80B203EBED
:10EA7000800533F92030B5F902600993581C68D03D
:10EA800091F818B0B2F92A90A17C364DB2F92270F3
:10EA9000B2F9248094F810A01BFB01F348460793B9
:10EAA00006F072FE2968079BCA69896B0591089078
:10EAB00006991846099B00FB03100490A37C03935E
:10EAC00001230293D37E0193937E009352465B46CB
:10EAD0004146384606F0AEF9731C1AD049F00200E0
:10EAE00006F052FE2A680699D369926B0592079A3E
:10EAF00002FB06160496A27C039201220292DA7EA1
:10EB000001929B7E009352465B464146384606F092
:10EB100091F92B68DB695A7E1B7E9A4215D9B9F1AF
:10EB2000020F12D089F0040006F02EFE0D4B1B6878
:10EB3000DB69187ED97E9A7E5B7E00FB01814344AF
:10EB40000AFB0272384606F009FB9DF8200006F029
:10EB50001BFE044B617C1A68538C0B4453840BB02E
:10EB6000BDE8F08F3C030020044B1B68DB69DB69C8
:10EB700009B11A7C0A60587C704700BF3C03002032
:10EB800002230B807047C3699A898A4202D8DA89C6
:10EB90008A420FD2986880B1038899420CD3428888
:10EBA0008A4209D3C91A436833F82100C043C0F32D
:10EBB000C030704701207047002070472DE9F04FAA
:10EBC000384C2368B3F92A80DB6989B006460146D0
:10EBD000D86900F092F8002860D005884768751B56
:10EBE00007EBC506404696F802A006F0CDFDD4F826
:10EBF00000C017F83520DCF81CE0DCF838309EF84F
:10EC000018B0BCF924108146BCF922000593736842
:10EC100004934FF0010CCDF80CA0CDF808C09EF87D
:10EC20001BC0CDF804C09EF81AE0CDF800E05B46AA
:10EC300006F000F92368DB69597E93F818A0079164
:10EC4000514520D9B8F1020F1DD093F81BB001F047
:10EC5000FBFF804601F0C2FF03F0C7FE236807995F
:10EC6000B3F924E0B3F92200DB6917F83550DA7EF6
:10EC70000BFB01E305FB02020BFB0AE106F06EFA57
:10EC8000404603F0B2FE484606F07EFD23687178E8
:10EC9000DA69907E5A8C00FB01225A8409B0BDE8E3
:10ECA000F08F00BF3C03002038B50D4B1B68DD69B9
:10ECB00002460C460146E86900F01FF870B103886F
:10ECC000D21A436803EBC2014878A97E10FB01F019
:10ECD00024B113F8323011FB03F3236038BD00BFB9
:10ECE0003C03002001230B80704708B5C06900F089
:10ECF00004F8003018BF012008BD38B103888B42EA
:10ED000002D843888B4201D28068F6E77047000042
:10ED10002DE9F047DFF86480DFF85890DFF858A05D
:10ED20000025D8F800309D4217DAD9F80070DAF8DB
:10ED300000107C266E43BC19231D74221846FDF773
:10ED400015FA0022BA5104F10C02A26104F1080282
:10ED5000E063226460640135E3E712F09BF9054B40
:10ED60001A687C2303FB0020034B04301860BDE8C5
:10ED7000F08700BF706500203C030020480300209E
:10ED800070B50E4E0E4B0F4D304640F80C3F05F05F
:10ED9000A7FA2C687C235C43204600F037FD0A4B21
:10EDA000306022461B68002198474FF0FF336B60AC
:10EDB00019F0AAF9BDE8704012F06CB97065002036
:10EDC0004922020848030020600300202DE9F04F8B
:10EDD00093B01C461C9E131AB3EB4603154682469D
:10EDE0000F464FEA460200F1A181631A9B1A002BDD
:10EDF000C0F29C8102F082F8B24A136893F869105D
:10EE0000904631B993F868200C92042283F8682068
:10EE100001E000230C930CF0BDF882440CF0C6F81E
:10EE200007440CF0B7F805440CF0C0F8D8F80030EF
:10EE300093F8692004443AB993F8683003FB0AFA5E
:10EE40005F435D435C435E4301F072FFD8F80030DE
:10EE500093F8689000FB09F000F0FF030593059A12
:10EE600009F101034FEA52085B10C8EB0A0AC8EB2C
:10EE7000070703EB0A021F44454401921D447A1E12
:10EE80004444E3180692019807936A1E029200F028
:10EE9000B5FBADF84000029800F0B0FBADF84400BF
:10EEA000069800F0ABFBADF84200079800F0A6FB17
:10EEB000ADF8460010A80CF0B5F858B9814B1B68A6
:10EEC00093F86920002A40F02F819DF8302083F8C4
:10EED000682029E1059B7B4F08EB0604A4EB59044D
:10EEE000E51A022394FBF3F295FBF3F304FB0422EF
:10EEF00005FB053308920D93019A059B1344013BD2
:10EF00000B930299019800F0E1FB029B059A9B1A72
:10EF1000013309933B685B696BB1B3F9062007992C
:10EF2000B3F902308A42A8BF0A460492069A934275
:10EF3000B8BF134602E0079B0493069B0393069B0E
:10EF400023440A9399460B9B2B440E93019BA8469E
:10EF500026464FF0000A03EB040B554530DD039BBA
:10EF6000994528DB049B994525DC0AFB0AF308999F
:10EF700006FB0632914201DA013EF8E70D9908FBE3
:10EF80000832914202DA08F1FF38F7E73B680E9A3F
:10EF90005B6EC8EB02021B684946C6EB0B00984744
:10EFA000029B1A1B099B581B3B685B6E32441B6813
:10EFB0004946404498470AF1010A09F1FF39CCE774
:10EFC0000A9B25EAE57ACAEB0309029B1B1B0E93F9
:10EFD000019BD04603EB040B44451CDD039B4B45D2
:10EFE00014DC049B4B4511DB08FB08F2089906FB77
:10EFF0000623994201DA013EF8E73B680E9A5B6E00
:10F0000032441B684946C6EB0B00984708F10108DB
:10F0100009F1FF39E0E7079B0A9E1B1B01360A93A3
:10F020000A9B9E420FDA3B680B9A5B6E01981B6845
:10F03000314698473B68029A5B6E09981B683146D7
:10F0400098470136ECE798460B9B2B440E93019BA7
:10F050002344A94626464FF0000B0F935D4533DD50
:10F06000039B434528DC049B434525DB0BFB0BF34B
:10F07000089906FB0632914201DA013EF8E70D9944
:10F0800009FB0932914202DA09F1FF39F7E73B68DF
:10F090000E9A5B6E0F981B68C9EB02024146801BFB
:10F0A0009847029B1A1B099B581B3B685B6E3244B6
:10F0B0001B684146484498470BF1010B08F10108D1
:10F0C000CCE700BF3C0300200A9B53449B46029BB5
:10F0D000C4EB0308019B03EB040954451CDD039BAF
:10F0E0005B4514DC049B5B4511DB0AFB0AF20899C3
:10F0F00006FB0623994201DA013EF8E73B685B6EA6
:10F1000008EB06021B685946C6EB090098470AF14E
:10F11000010A0BF1010BE0E700F00CF80BF078FEB0
:10F1200000287FF4EEAEC9E604F00EF813B0BDE897
:10F13000F08F00BF08B510F043FF044B044A1B6872
:10F14000526A5A6603F108025A6108BD3C03002066
:10F15000F0B800202DE9F743164604460D4601F0AD
:10F16000CDFE294BDFF8A4801A681F46DAB1D8F823
:10F170000030DA6C1B6D002014441D440BF052FF6C
:10F1800088B13B68324629462046984781460BF0B5
:10F190003FFE0028F5D1B9F1000F04D103F0D4FFF0
:10F1A00003B0BDE8F0830BF0F5FE04440BF0FEFE67
:10F1B000D8F8003093F86920054422B993F86830F4
:10F1C0005C435D435E43A01B00F018FAADF80000FD
:10F1D000A01900F013FAADF80400A81B00F00EFA15
:10F1E000ADF80200A81900F009FAADF8060068466B
:10F1F0000BF018FF0028D1D0324629462046FFF7F1
:10F200009BFA0BF005FEF5E7AC6300203C03002001
:10F210002DE9F04F87B092461D4607460E4601F095
:10F220006DFE5A4B1A689846EAB1594B1B68DA6C66
:10F230001B6D002092441D440BF0F4FE98B12B4648
:10F24000524631463846D8F80040A04781460BF078
:10F25000DFFD0028F3D1B9F1000F04D103F074FFF2
:10F2600007B0BDE8F08F0BF095FE81460BF09EFED7
:10F27000804600200BF0D6FE0028EFD008EB050BEF
:10F28000DFF80C810AEB09044FEA860AD8F800304F
:10F29000404A5B7C06A852F8233040F8083DDB6802
:10F2A00012215B6A9847054638B1CDF800B0234675
:10F2B000324639460498A84763E0D8F8003093F8FE
:10F2C000692012B993F8689001E04FF00109B7F98D
:10F2D000000001250146AE4209DD37F925E0704501
:10F2E000A8BF70467145B8BF71460135F3E72144A8
:10F2F00020442AB193F8683091FBF3F190FBF3F0CE
:10F3000000F088F90546002839D1504600F00EFA81
:10F310000390A0B300F0FEFA1F4B05901B68524605
:10F32000394698471A4B1A6892F8693083B106AD8E
:10F3300009FB0BF355F8040D09FB04F23146FFF706
:10F3400067FA284600F04AFB039800F023FA16E01B
:10F35000059BAE4203F10403E9DD92F8681033F82F
:10F36000040C10FB01F123F8041C92F8681033F828
:10F37000020C10FB01F123F8021C0135E9E7FFF74D
:10F38000D9FE0BF045FD002880D167E7B46300206B
:10F390003C03002084BA00205C0300202DE9F04FDC
:10F3A0008BB01546149C121A01321E46B2EB440370
:10F3B000884681464FEA440100F11A81C8EB0603F2
:10F3C0005B1A13F1010F00F113818B4F01F096FDD1
:10F3D0003B6893F8692032B993F8682005920422BB
:10F3E00083F8682001E0002305930BF0D3FD09EBBF
:10F3F000000300930BF0DAFD08EB000303930BF01E
:10F40000C9FD05440BF0D2FD3B6893F8692093F8E1
:10F410006810304442B9009B4B430093039B4B431D
:10F4200003934D4348434C43039B0D44013B0493DA
:10F430006B1E01930B180098029300F0DFF8ADF8F3
:10F440002000019800F0DAF8ADF82400049800F0EC
:10F45000D5F8ADF82200029800F0D0F8ADF82600FB
:10F4600008A80BF0DFFD58B9634B1B6893F86920BF
:10F47000002A40F0BB809DF8142083F86820B5E096
:10F480000223DFF8749194FBF3F304FB0433069337
:10F490009DE8030000F01AF9D9F800305B6963B108
:10F4A000B3F906A0029AB3F902B0049B9245A8BF33
:10F4B00092469B45B8BF9B4603E0DDF808A0DDF807
:10F4C00010B0049B1E19009B03EB040808F1FF33E6
:10F4D000254600270793BC4222DD5E451DDB5645CD
:10F4E0001BDC07FB07F2069905FB0523994201DAAD
:10F4F000013DF8E7D9F80030079A5B6E31461B688A
:10F50000C5EB08009847019B181BD9F800305B6ECB
:10F510002A181B683146013098470137013EDAE767
:10F52000029B1E1B009B03EB040808F1FF332546DA
:10F5300000270793BC4222DDB3451DDCB2451BDB2F
:10F5400007FB07F2069905FB0523994201DA013D05
:10F55000F8E7D9F80030079A5B6E31461B68C5EBB7
:10F5600008009847019B181BD9F800305B6E2A18D9
:10F570001B6831460130984701370136DAE7FFF75B
:10F58000D9FDD9F8003093F86850009B93FBF5FA49
:10F59000039B93FBF5F8019B6F1EDF1B029B97FB00
:10F5A000F5F75E1B96FBF5F694FBF5F50AEB050BFC
:10F5B0007B1B7A1B41460793A84433465846751B6C
:10F5C00005F0CCFD2B460BF1FF324146504605F0CD
:10F5D000C5FD07982B463A464146013005F0BEFD71
:10F5E0000BF016FC00287FF453AF3DE703F0ACFDB1
:10F5F0000BB0BDE8F08F00BF3C030020044B1B683C
:10F6000093F868300BB190FBF3F000B2704700BF85
:10F610003C0300202DE9F041254CA36A05460E4627
:10F620008BB9244B1B68236213B905F067FE206277
:10F63000206A00F0EBF8A06238B11D481E4B40F87C
:10F640002C3F04F04DFE002700E001271B4BDFF8A4
:10F6500078801B68226AD8F800E0AB42B8BF2B461E
:10F66000F11A9142A8BFD618DEF86420144D6262E8
:10F6700092E80300A8BF06F1FF369E42114ACEF879
:10F68000645085E80300B8BF1E466263A26A6360E7
:10F69000B8BF0127A26026600CF014FE0CF036FC07
:10F6A000D8F800301C3D5D613846BDE8F08100BFF0
:10F6B000F0B8002074BA002021230208A0B900206D
:10F6C00024B90020B9EF01083C030020044B1B685B
:10F6D00093F8683091FBF3F190FBF3F0FFF79ABFDA
:10F6E0003C03002073B505460C46C1B101F006FC91
:10F6F000204600F01BF8064668B100F00BF90190B7
:10F700000DB1084B00E0084B1B682246294698477C
:10F7100001A800F063F903F017FD304600E0084649
:10F7200002B070BD5C0300206003002010B50446E9
:10F7300038B101F0E3FB20460CF070FB044603F007
:10F7400003FD204610BD000073B5054601F0D6FB51
:10F750002846FFF7EBFF064660B100F0DBF802AC8D
:10F76000074B44F8040D1B682A46002198472046A1
:10F7700000F034F903F0E8FC304602B070BD00BF81
:10F7800060030020024B21F00301186059607047AC
:10F79000C063002010B5044680B101F0AFFB084BF8
:10F7A0005B6B03EBC403596848680CF041F82046D2
:10F7B00013F080F9BDE8104003F0C6BC10BD00BFD7
:10F7C000A4B9002028B1034BDA6B026002B150608B
:10F7D000D8637047A4B9002010B5044601F08EFB31
:10F7E0002068FFF7D7FF00232360BDE8104003F037
:10F7F000ABBC70B506460D460024AC4205DA06EBFC
:10F800008400FFF7E9FF0134F7E770BD2DE9F0410F
:10F810000746264E033711F0CBFF27F00307306C65
:10F82000F26B0437874238BF0746144634B154F8A8
:10F83000043C9F4223682CD01C46F7E7F368B26B68
:10F8400002EB030858F8045CC5EB08052B6833B1DC
:10F85000204613F0EBF958F8045CC5EB08052B685B
:10F860000BBB6B689F421EDC28461C1D13F0BEF9C3
:10F87000F3686868DB1BF3607369E41B3B44C01BDF
:10F880002C44736102D029460BF0D2FF44F8047C6B
:10F8900009E00BB161685960616801B10B60A24277
:10F8A00001D12368F3632046BDE8F081A4B90020AC
:10F8B00008B511F07DFF0C4A00239918D1F8BC005F
:10F8C00010B1836800200BE0083B13F1800FF4D1E6
:10F8D00008E05A689B68904238BF104613B19B6895
:10F8E000002BF6D10C3808BDA4B9002030B1044B70
:10F8F0005B6B03EBC000436858680C38704700BF6F
:10F90000A4B90020024A936901339361704700BF94
:10F91000A4B90020054BDA690132DA615A6B12F89A
:10F920003030013302F8303000F070B8A4B9002054
:10F9300073B5044608460D46FFF7F8FE064618B3B1
:10F9400014B32046FFF7D2FF8542A8BF054601F059
:10F95000D5FA3046FFF7DEFF00902046FFF7DAFFCA
:10F960002A4602AD0A4B0190014655F8080D1B6866
:10F970009847284600F032F801A800F02FF82046FA
:10F98000FFF708FF03F0E0FB304602B070BD00BF98
:10F990005C03002010B501F0B1FAFFF789FF0A4BB4
:10F9A000B0F5800F8CBF1B6A1B6A4FF0640487BFE1
:10F9B00090FBF4F003FB00F45843B0FBF4F403F0C5
:10F9C000C3FB204610BD00BFA4B90020024A9369C2
:10F9D000013B9361704700BFA4B9002030B50368B4
:10F9E000094953F8085C4C6B14F83530012B03D9E6
:10F9F000CA690AB1013ACA61013B04F835300023F3
:10FA00000360184630BD00BFA4B90020034B5B6BF8
:10FA100003EBC00040680830704700BFA4B9002065
:10FA200050F8080C70472DE9F7430B4607460028AD
:10FA30003CD042B111461846FFF754FEB0FA80F4AC
:10FA40000546640901E0144615463846FFF762FF93
:10FA500002AEB0F8008046F8080DD0F804903046A9
:10FA6000FFF7BCFF24BB08F1010148468900FFF7FE
:10FA70005FFF814618B92846FFF78CFE18E0FFF7B4
:10FA800049FF02AB43F8040D40F828501846FFF731
:10FA9000A5FF3846FFF73EFF038800900133C0F80A
:10FAA000049003803046FFF799FF02E0044600E02F
:10FAB0000124204603B0BDE8F0830820FFF744BED0
:10FAC00037B5054618B3FFF725FF00904068C0B171
:10FAD000FFF720FF00240190009B1B889C4206DA60
:10FAE000019800EB8400FFF777FE0134F4E701A8EA
:10FAF000FFF774FF00980430FFF76EFE009B0022B2
:10FB00001A806846FFF76AFF2846FFF743FE03B0F6
:10FB100030BD37B50C46FFF7FDFE03880090A342C9
:10FB20001FD94568EDB101F0E9F92846FFF7F2FE6B
:10FB3000A50001902844FFF74FFE009A1388013B6F
:10FB40009BB21380019A2A449C4205DA52F8041FA2
:10FB500042F8041C0134F7E701A8FFF73FFF03F068
:10FB6000F3FA6846FFF73AFF03B030BD13B5044619
:10FB700040B1FFF7CFFE02AB048843F8040D1846EE
:10FB8000FFF72CFF204602B010BD73B50E460446A9
:10FB900058B1FFF7BFFE02AD314645F8040D00F045
:10FBA00057F804462846FFF719FF204602B070BDFB
:10FBB00073B50E46044658B1FFF7ACFE02AD3146B0
:10FBC00045F8040D00F05CF804462846FFF706FFF0
:10FBD000204602B070BD00007FB5064610460D46B7
:10FBE0001446FFF7B1FD039058B33046FFF792FE7D
:10FBF0002946009000F044F801900398FFF78AFE30
:10FC0000224604AC114B54F80C1D1B680290984717
:10FC10002046FFF7E3FE02A8FFF7E0FE039A0098F4
:10FC2000294600F036F820B103A8FFF7D5FD0024DF
:10FC300003E00398FFF76EFE04466846FFF7CEFE2A
:10FC400000E00446204604B070BD00BF5C03002005
:10FC500003888B4213B50C460ED9406850B1FFF7AC
:10FC600059FE02AB50F8244043F8040D1846FFF744
:10FC7000B5FE02E0044600E00024204602B010BDBC
:10FC800008B5FFF7E5FF18B1BDE80840FFF742BE31
:10FC900008BD03888B42F7B50E46174612D9406857
:10FCA00080B1FFF737FE02AC054644F8040D00EBC7
:10FCB0008600FFF791FD45F826702046FFF78EFE7F
:10FCC000002000E0012003B0F0BD000010B50446A4
:10FCD00001F014F9044B142000FB0434247A03F0DF
:10FCE00033FA204610BD00BF746400202DE9F743AD
:10FCF0000D4606462E4C01F001F9284600F0B0FFF3
:10FD0000142303FB05438146D3F8048023683BB9E1
:10FD1000012320462360274B40F82C3F04F0E0FAF3
:10FD2000B9F1000F1ED0484602F0B4FD07464FF06F
:10FD30007F4002F04FFE00F0C7F800221146306805
:10FD400000F086FC336848465A88198802F08AFE1B
:10FD5000142303FB0544012366602372384602F036
:10FD600099FD1CE0142707FB0547012378697E6095
:10FD70003B7218B102F062FAC7F8149096B11423DE
:10FD800003FB0544B268E0682769716801230093AA
:10FD9000411A2B46BA1A306802F0FEFC6061284610
:10FDA00013F068FC03F0D0F9404603B0BDE8F083DF
:10FDB00074640020B5210208024B1B685A7C00F0D5
:10FDC00003B800BF3C030020F8B5144606460D46B4
:10FDD00001F094F8204600F043FF154F142348B17A
:10FDE00003FB047463689A685968AA1A711A02F0CE
:10FDF00029FE18E003FB0473DA68B24202D11B69E2
:10FE0000AB4210D0142303FB0473586930B15B6814
:10FE10009A685968AA1A711A02F036FA142303FB79
:10FE20000474E6602561BDE8F84003F08DB900BFB9
:10FE300074640020024B1B68587C00F003B800BFBC
:10FE40003C03002010B5044601F058F8094A142379
:10FE500003FB042301221A725B6823B9214606487A
:10FE6000FFF744FF02E0204613F004FCBDE8104019
:10FE700003F06AB97464002074710D08C3B2CAB289
:10FE80009A1A92B210B514B2002CBCBF524214B2EE
:10FE9000C0F30723C1F307229B1A9BB2090C1AB2C5
:10FEA000C1EB1041002A89B208B2BCBF5B421AB252
:10FEB0000028BCBF494208B2524304FB042280B26E
:10FEC00000FB002010BD000010B50021084600F026
:10FED00087FF044943F6FF731A460846BDE8104001
:10FEE00000F002B801C0FFFF2DE9F34116461F469E
:10FEF00004460D4601F002F8042005F045FC144BC1
:10FF0000DB68DA6C1B6D804614441D4416441F44A4
:10FF10006846ADF80040ADF80460ADF80250ADF8A9
:10FF200006700BF07FF838B9404605F02DFC03F061
:10FF30000BF902B0BDE8F0813B4632462946204627
:10FF400005F00CF90AF064FF0028F5D1ECE700BFDA
:10FF500030030020B0F90630B0F90420B0F90210E7
:10FF6000B0F90000FFF7C0BF2DE9F347054688460A
:10FF700014461E4613B909F0F5FF064600940B9B84
:10FF80002C680A9A31462846A0470446002840D0EB
:10FF900009F0DBFF698A0746204609F05AFA204635
:10FFA0000AF0FAFD38460AF0F7FD4FF0000908F1B3
:10FFB000FF38B8F1000F12DD55F81CAFCDF80090F6
:10FFC00000231A4639462846D047824620B92046A3
:10FFD00009F0A6FE50461DE00AF0DEFDE7E71D2110
:10FFE00038460AF0CAFB731C13D000F087FF0AF0F2
:10FFF00005F850B1FFF70AFD8069844207D0002858
:020000040801F1
:10000000F8D120460AF09AFC01E0A642F9D103F0AB
:100010009BF8204602B0BDE8F087000080B582B0B2
:1000200000AF7860054B1B68002B03D0034B1B68A7
:100030007868984700BF0837BD4680BD64BA002085
:10004000012BF8B506460D4617461C4601DD00207B
:10005000F8BD1C20FFF7DAFB0028F8D00DB10561D0
:1000600009E0094B53F8241029B10B680BB119466C
:10007000FBE70B6903610023836084618782C660AC
:1000800003604360F8BD00BF84BA002038B51D4648
:10009000FFF7D6FF044648B100F00EF8E3681B688E
:1000A00023B9034B16351B6843F82540204638BD5D
:1000B0003C030020FFF786BB30B508B9012030BDF6
:1000C0008469012CFADC1B4B1A789442A4BF621C91
:1000D0001A70194A52F8243015461BB942F8240008
:1000E000184630BD5A680AB11346FBE7C268126869
:1000F000D9680968914203DD1B68002BF8D1DDE760
:1001000009D1818A012906D1196821B10B46C96834
:1001100009688A42F8DD5A6812B11060426001E055
:1001200045F824005860984208BF0023036000206F
:1001300030BD00BF80BA002084BA002010B520B1C5
:100140000468FFF7B9FF2046F9E710BD81690A4A44
:1001500052F821309842036804D142F821300BB1A3
:1001600000225A60426802B11360036803B15A600A
:10017000002303604360704784BA0020002070476A
:1001800001280ADC064B53F8200028B1C3681B681D
:100190008B4203D00068F8E770470020704700BF2B
:1001A00084BA0020012809DC054B53F8200020B157
:1001B000C3681B681BB10068F9E7704700207047EF
:1001C00084BA00202DE9F3410E46174698460546AD
:1001D00070B1FFF79FFB044602A8236840F8044D66
:1001E0001C68FFF7FBFB43463A4631462846A047CA
:1001F00002B0BDE8F08137B5044660B1FFF78AFB75
:1002000002AB026843F8040D18465568FFF7E6FB99
:100210002046A847FFE703B030BD37B5044660B1BC
:10022000FFF778FB02AB026843F8040D18469568A7
:10023000FFF7D4FB2046A847FFE703B030BD00001E
:100240002DE9F843054617F05BFFDFF85880DFF82B
:100250005890054417F054FF2E1A002E1FDD00F0B1
:1002600005FCD8F800309E42A8BF1E4600F046FEAE
:10027000D9F80040FFF746FB27461FB102F064FFA4
:10028000013FFAE7304617F037FF1CB100F036FEA9
:10029000013CFAE7FFF79AFB02F056FFDAE7BDE808
:1002A000F88300BF500300207465002070B50A4D2C
:1002B0002B68B3F9244000F05FFD211A2868C36958
:1002C000B0F922005B7E0B44013B4FF47A62BDE83B
:1002D0007040FFF709BE00BF3C03002010B5044684
:1002E00000F00CFE2046FCF7FBFEBDE8104002F0DB
:1002F0002BBF000070B50E461546044600F0FEFD0B
:10030000054B1B6820465E849D84FCF7E9FEBDE832
:10031000704002F019BF00BF3C03002038B505460D
:100320000C46013C03D42846FFF7D8FFF9E738BD57
:1003300008B500F0E3FD00F0B9FC054B1B689A8C92
:1003400010441A8C98845A84BDE8084002F0FCBE20
:100350003C0300202DE9F04F054685B0002800F051
:100360008480434C00F0CAFD00F0A0FC23680746DF
:10037000B3F9228000F000FD2268938C86B29B1BAB
:100380009384A1462B78002B61D047F6FF71284655
:1003900003F0F4FD01468246284603F0BFFD2268C3
:1003A000938D03F00303012B04D0022B04D190FBA7
:1003B000F3F302E0034600E00023518CCB1A9BB21A
:1003C00019B21FFA80FB5184ADF80810B2F924204D
:1003D000ADF80A200BF1FF310B44ADF80C30013AB7
:1003E000BBB21A44ADF80E20514602AA284601932A
:1003F00003F0FEF82268BDF80A10918428465146A1
:1004000002F08CFD2A5C019B0A2A05EB000E01D04C
:100410000D2A12D12268918D01F0030101390129C1
:100420008ABF118CA2F8228051849EF800100A29FC
:100430000AD1918C0B44938406E0BDF80800D9F8EA
:1004400000308344A3F822B09EF8003053B92368EB
:100450009A8C16449A8D9E8422F003029A8502F0AB
:1004600073FE02E00EF101058CE705B0BDE8F08FE8
:100470003C03002070B50E461546044600F03EFDD4
:10048000054B1B6820465E849D84FFF763FFBDE833
:10049000704002F059BE00BF3C03002008B5FFF7D2
:1004A000E9FFBDE80840FFF701BF47F6FF73AFF370
:1004B00000802DE9F3410C46174698460646E0B108
:1004C00000F01CFD6CB120460AF00CFB054648B15B
:1004D00002462146684603F0B9FD68460AF002FB71
:1004E00000E0254643463A462146304603F0D4F81C
:1004F00028460AF0F7FA02F027FE02B0BDE8F081C4
:100500002DE9F04F8BB00D461746039306460028A1
:1005100000F09A8000F0F2FCB5F90030B5F90490D3
:100520000193C3EB09030133B5F90240B5F906B0F5
:10053000029300F0BBFB17F00C0882461ED0039A12
:100540000299304602F00AFEB8F1080F05D0B8F162
:100550000C0F09D0B8F1040F10D10BF1010410FBFE
:100560000AF0201A04B209E0C4EB0B03013300FBCC
:100570001A30022390FBF3F0044424B228460AF018
:10058000B1FA804688B1BDF80430ADF818300246A3
:10059000294606A8ADF81A40ADF81C90ADF81EB07B
:1005A00003F054FD06A80AF09DFA1FFA8AF304939B
:1005B000013B059307F00307039A0299304603F0C5
:1005C000EBFEBDF80430ADF82030059BADF82240BD
:1005D0001FFA84FB5B44014682463046ADF8249006
:1005E000ADF8263003F09AFC012F11D0022F04D071
:1005F0009FB92B88ADF820300FE0B5F90020B5F990
:1006000004309B1A181A013090FBF7F0104402E0F6
:10061000AB880133181AADF82000304608AA5146BD
:1006200002F0E6FF3046039A029903F0ABFE049B0A
:10063000064403EB0B04337824B2002BBCD14046B4
:100640000AF050FA02F080FD0BB0BDE8F08F000018
:1006500073B5064615460C4600F050FC114B1B685E
:10066000DA6C1B6D1D443388ADF802501444013B15
:100670002344ADF804307388ADF80040013B2B44AF
:100680006846ADF806300AF0CDFC18B902F05CFD02
:1006900002B070BD2A4621463046FDF7CFFD0AF074
:1006A000B7FBF2E73C03002013B50A460146684653
:1006B00003F008FE00F022FC234BBDF802101A687C
:1006C000BDF80030B2F84C40B2F85000BDF804203C
:1006D0002344ADF80030BDF8063001440344224401
:1006E0006846ADF80210ADF80420ADF806300AF007
:1006F00099FC18B902F028FD02B010BDBDF9004008
:10070000BDF90430BDF902109C4209DC204604F01A
:10071000CBFC2046BDF9061004F0C6FC0234EFE71E
:100720000C46BDF906309C420BDC2146BDF90000A9
:1007300004F0BAFC2146BDF9040004F0B5FC023413
:10074000EFE70AF065FBD4E73C0300202DE9F04316
:1007500087B00546914698460C4600F0CFFB164BF5
:100760001B68DA6C1B6D15441C449144984404A822
:10077000ADF81050ADF81490ADF81240ADF81680F9
:100780000AF050FC20B902F0DFFC07B0BDE8F083AE
:100790000A4E00270F9B01930E9B009342464B4647
:1007A00029462046039702960EF09CFA0AF030FB89
:1007B0000028EFD1E7E700BF3C0300200951010802
:1007C0002DE9F04387B00446904699460D4600F067
:1007D00095FB164B1B68DA6C1B6D14441D4490444A
:1007E000994404A8ADF81040ADF81480ADF812504B
:1007F000ADF816900AF016FC20B902F0A5FC07B07F
:10080000BDE8F0830A4E01270F9B01930E9B0093D6
:1008100042464B4629462046039702960EF062FA5E
:100820000AF0F6FA0028EFD1E7E700BF3C0300200A
:10083000595001082DE9F341144F804616460C46E5
:1008400000F05CFB3D682A6DEB6C08EB02051C4474
:100850001E4468462BB2ADF80040ADF80460ADF818
:100860000230ADF806300AF0DDFB20B902F06CFC76
:1008700002B0BDE8F0813B685B6E32461B682946DA
:10088000204698470AF0C4FAEFE700BF3C03002077
:100890002DE9F84380461E460C46154600F02EFB17
:1008A0000D4B1B680020DF6CD3F850900AF0BAFBA8
:1008B00018B9BDE8F84302F047BC4E443D444C44EF
:1008C00033462A46214607EB0800FDF70BFD0AF0E8
:1008D0009FFA0028F4D1ECE73C03002073B5124ED8
:1008E00004460D4600F00AFB3368DA6C1B6D1444B5
:1008F0001D4423B2ADF80430ADF8003068462BB289
:10090000ADF80630ADF802300AF08CFB18B902F0F1
:100910001BFC02B070BD33685B6E29465B682046E5
:1009200098470AF075FAF1E73C030020F8B5044651
:100930000D4600F0E3FA0B4B1B680020DE6C1F6DC8
:100940000AF070FB18B9BDE8F84002F0FDBB3D4469
:10095000344429462046FDF77FFE0AF059FA002864
:10096000F7D1F0E73C0300202DE9F74306461F4688
:100970008846914600F0C2FA1E4B1C68206DE56C5B
:10098000247E013CA4B22E44331B4D4480440744D2
:10099000ADF800306319ADF804306846C4EB0803C5
:1009A0003C44ADF80230ADF806400AF03BFB20B9FC
:1009B00002F0CAFB03B0BDE8F08308F1010407F1BF
:1009C000FF392A464146304604F046FB2A4639465E
:1009D000304604F041FB4A462146304604F094FB81
:1009E0004A462146284604F08FFB0AF011FA0028F7
:1009F000E7D1DDE73C03002073B5044616460D46FB
:100A000000F07CFA0F4B1A68D36C126D1C4423B2B1
:100A1000154416446846ADF80030ADF80430ADF822
:100A20000250ADF806600AF0FDFA18B902F08CFB2E
:100A300002B070BD32462946204604F065FB0AF03C
:100A4000E7F9F2E73C03002038B504460D4600F014
:100A500011F910B101234560036000F04FFA204600
:100A60000AF05AF9BDE8384002F06EBB10B5002418
:100A700000F006F808B10124FAE7204610BD000096
:100A80000C4B10B51C681CB1A047041C18BF0124F6
:100A900009F0DEF9084B1B68002818BF01241BB1C0
:100AA0009847002818BF0124044B1B6803B19847DE
:100AB000204610BDA0BA0020A4BA00209CBA002095
:100AC000F7B5044616461F460D4600F017FA104BC0
:100AD0001B68DA6C1B6D14441D4416441F446846A1
:100AE000ADF80040ADF80460ADF80250ADF8067006
:100AF0000AF098FA18B902F027FB03B0F0BD3B46A4
:100B000032462946204604F029FB0AF081F9F1E734
:100B10003C030020B0F90630B0F90420B0F902100F
:100B2000B0F90000FFF7CCBF13B50B4630B1C48855
:100B3000818800928268204600F002F802B010BD61
:100B400030B50428039D27D010DC012818D00228D6
:100B500038D1694302EB93026FEA4300525C00F024
:100B6000060022FA00F000F0030030BD10281DD06E
:100B7000202821D0082825D105FB0121C85C30BDE3
:100B8000694302EBD302D843525C00F0070022FA1B
:100B900000F000F0010030BD02EB53026943DB07B7
:100BA000505C4CBF00F00F00000930BD4C1005FB3D
:100BB000043332F8130030BD8C1005FB043352F8B7
:100BC000230030BD002030BD034B53F82000C36824
:100BD00008219B6A184700BF84BA002010B500F0B6
:100BE0008DF904F0EBFA04F0EFFB044602F0ACFAE6
:100BF000204610BD10B5044600F080F9054B1B6877
:100C0000DB6900215B6820469847044602F09CFAA5
:100C1000204610BD3C03002038B504460D4600F0C8
:100C20006DF9064B1B68DB6929465B6820469847CF
:100C3000044602F089FA204638BD00BF3C0300207C
:100C400008B109F05FB9704710B500F057F904F02A
:100C5000BDFA04F0B9FB044602F076FA204610BD56
:100C600001289ABF024B53F820000020704700BFB4
:100C70004C6500201FB50446102200216846FBF792
:100C80009FFA2A2320466946009309F067FD0398DE
:100C900004B010BD10B500F031F9034B1B681C7C8B
:100CA00002F052FA204610BD3C03002010B500F0BF
:100CB00025F9044B1B68DB695C7E02F045FA20468F
:100CC00010BD00BF3C03002010B500F017F903F081
:100CD0001BF9044602F038FA204610BD70B50446F0
:100CE0000E46154600F00AF920462A46314604F021
:100CF000DDFA044610B1002333602B6002F024FAC1
:100D0000204670BD38B505460C4600F0F7F8064B96
:100D1000B3F900302B60054BB3F900302360BDE818
:100D2000384002F011BA00BF6ABA00206CBA002045
:100D300010B500F0E3F8034B1B681C7E02F004FAC8
:100D4000204610BD3C03002010B5044603F032F9E4
:100D500001462046BDE8104003F0E0B817F0D0B9D6
:100D600004483523037034238370C37061230371F7
:100D7000704700BF2603002010B500F0BFF80C4BF1
:100D80001A68938D03F00C03082B07D00C2B05D0A9
:100D9000042B07D1D3691C7E013C04E0D3691C7E7F
:100DA000640800E0002402F0CFF9204610BD00BF27
:100DB0003C030020407E7047027EC07E5043704757
:100DC000024B53F820301B691868704784BA002022
:100DD000024B53F820301B695868704784BA0020D2
:100DE00038B505460C4600F089F8044B1B685D8455
:100DF0009C8402F0A9F9002038BD00BF3C0300200C
:100E000090B583B000AF344A334B1B6823F0010325
:100E10001360324B01221A6000BF304B1B68002B5D
:100E2000FBD12F4B2F4A1A602D4B1B682E4A934241
:100E300000D0FEE702F0C4FA2C4B2E221A7017F0F5
:100E400061F92B4810F072FC13F014F9786004F08B
:100E500063FA0346002B0CBF01230023DCB204F02D
:100E60006FFA0346002B0CBF01230023DBB22343A0
:100E7000DBB2002B09D004F058FA044604F069FAFA
:100E800003461946204604F079FC0021002001F0B9
:100E900015FE09F017FAFDF73BFF164B1B68002BF8
:100EA00012D00DE0134B1B681B68002B03D0114BB5
:100EB0001B681B6898470F4B1B685B680D4A1360E3
:100EC0000C4B1B68002BEDD10B4B01221A707B6879
:100ED00018460C37BD4690BD002000E008300240A7
:100EE00000300240C2A507F4CDB5E8B568BA0020CD
:100EF000D86300205064002078BA00202DE9F0412A
:100F0000194C636823B117F0F9F8A368984204D02C
:100F100017F00AF917F0F2F8A0606368DFF848806C
:100F20000133012B63601CD110F0B4F80F4A5368F1
:100F300098420746164614D0002B11DBD8F8005013
:100F40007C2404FB0355FFF719F9D8F80030A86793
:100F500004FB0734064BA06F221D1A60FFF7EEF862
:100F60007760BDE8F08100BF706500204803002075
:100F70003C03002013B5044618B9104B1B681C6EC7
:100F8000D4B1FFF7BBFF2046FEF7C4FC02AB4469B7
:100F900043F8080D1846FEF721FD5CB12046FEF728
:100FA000B9FC02AC836844F8040D9B68984720465E
:100FB000FEF714FD02F0C8F802B010BD3C0300209B
:100FC000014A114600F002B801F0FFFF2DE9F0439D
:100FD0000C4685B015460646002845D0FFF78EFF23
:100FE000002001F013FD224B1B6807463046D3F862
:100FF0006080FEF78FFC03680190986901F04AFC5D
:10100000019A1C4B9C42138904BFB2F90440B2F907
:101010000650ADF80840013B2344ADF80C3053892D
:10102000ADF80A50013B2B448146ADF80E3008F074
:101030006BFC01A8FEF7D2FC02A809F0F3FF58B937
:10104000484601F027FC404600F000FA384601F01F
:10105000DDFC02F079F807E02A462146304600F030
:1010600003FC09F0D5FEEAE705B0BDE8F08300BF58
:101070003C03002001F0FFFF2DE9FF470C9D0746D0
:101080009A4688469146FFF739FF194B1B68587CF2
:10109000184B53F82040E3681B68042B06D02468E3
:1010A000002CF8D1FFF77EF80446E8B1E36801218F
:1010B000DB6A20469847064698B12469A36898479A
:1010C000013008BF0C4C029408BF45F001058DE8C3
:1010D000600053464A464146384600F04FFA0446FF
:1010E00000E0044602F030F8204604B0BDE8F08786
:1010F0003C03002084BA00203C5E0D0837B504464E
:10110000F0B1FFF7FBFE0F4B1B681B6E9C4201D139
:1011100001F0B2FB2046FEF7FDFB0190406908B1EB
:1011200001F0F8FF02AD55F8043D1868FEF7C2FF64
:101130002846FEF753FC2046FEF72CFB02F004F88D
:1011400003B030BD3C0300202DE9F04F87B00646C8
:10115000039298460291FFF7D1FE544B1A68547CD3
:10116000534A1257012A20469B4606DD04F0DAF85E
:101170008146204604F0EAF805E004F0BCF8814618
:10118000204604F0BEF8044636B305A904A8FFF7CC
:10119000B9FD049A059BB6F90070B6F90250914466
:1011A00009F1FF321C44B6F90490B6F9063027EA7B
:1011B000E77725EAE575013C4A45D4BFC7EB02094C
:1011C000C7EB09099C42D4BFC5EB0404C5EB03047B
:1011D00009F10109013401E035463746B8F1000F45
:1011E00001D1C4F10008B9F1000F01DD002C03DCCE
:1011F00001F0AAFF002055E0109B00934A464346A9
:1012000029463846FFF738FF064630B90398029B57
:10121000984701F099FF012044E000F0D1F88442A2
:10122000804606D0DBF80030986C10B132210AF00D
:1012300041FA304600F00AF9A2464FF00009D045C5
:1012400003DD5146304600F0E5F8B9F1000F08D053
:10125000304605EB0902394600F022F93046FFF727
:1012600089FE029B03989847124B1B680BB1002024
:1012700098473046C144FFF7A3FE4C45C8EB0A0A25
:10128000DDDC3046FFF73AFF002000F0DFF8444590
:10129000AED0DBF80030986C0028A9D033210AF0DA
:1012A00009FAA5E707B0BDE8F08F00BF3C030020B6
:1012B00082BA002094B9002037B5044698B1FFF7F0
:1012C0001DFE2046FEF726FB036802AD1B6945F8AC
:1012D000040D9B68984704F09CFC04462846FEF7E2
:1012E0007DFB01F031FF204603B030BD13B504464D
:1012F00070B1FFF703FE2046FEF70CFB02AB00F1D6
:10130000180443F8040D1846FEF768FB01F01CFFB3
:10131000204602B010BD000013B50446FFF7EEFDF5
:101320001CB90A4B1B681C6E54B12046FEF7F2FA3A
:1013300002ABB0F9044043F8040D1846FEF74EFB2B
:1013400001F002FF204602B010BD00BF3C030020A8
:1013500013B50446FFF7D2FD1CB90A4B1B681C6E7F
:1013600054B12046FEF7D6FA02ABB0F9084043F874
:10137000040D1846FEF732FB01F0E6FE204602B0EF
:1013800010BD00BF3C03002013B50446FFF7B6FDB7
:101390001CB90A4B1B681C6E54B12046FEF7BAFA02
:1013A00002ABB0F9064043F8040D1846FEF716FBF1
:1013B00001F0CAFE204602B010BD00BF3C03002071
:1013C00013B50446FFF79AFD1CB90A4B1B681C6E47
:1013D00054B12046FEF79EFA02ABB0F90A4043F83A
:1013E000040D1846FEF7FAFA01F0AEFE204602B0F0
:1013F00010BD00BF3C03002038B505460524284633
:101400000BF030FA10B9013CF9D138BDBDE83840D5
:1014100000F078B837B50D46044618B90A4B1B687A
:101420001C6E7CB1FFF76AFD2046FEF773FAB0F937
:101430000A300190AB42C8BF458101A8FEF7CEFA41
:1014400001F082FE03B030BD3C030020F7B5064634
:10145000FFF754FD114B1A681C46176E16B901F0C0
:101460000BFA16E00FB101F007FA08F00DFC304658
:10147000FEF750FA02AD236845F8040D1E660068B9
:10148000FEF71AFE2846FEF7A9FA04F085FA04F0E2
:101490003DF901F059FE384603B0F0BD3C03002091
:1014A00073B50D461446064618B9154B1B681E6EDB
:1014B00026B3FFF723FD3046FEF72CFA24B22DB2F7
:1014C000C4808580009004F021F9009B586980B1A8
:1014D000FEF720FA009B0190B3F90820B3F90A3017
:1014E0008280C38012B10BB10580448001A8FEF751
:1014F00075FA6846FEF772FA01F026FE02B070BD7A
:101500003C030020014A114600F002B801F0FFFF41
:101510007FB50C461546064660B3FFF7EFFC304634
:10152000FEF7F8F9144B01909C42038904BFB0F90F
:101530000440B0F90650ADF80840013B2344ADF833
